{
  "contractName": "BankAccount",
  "abi": [
    {
      "inputs": [
        {
          "internalType": "uint256",
          "name": "x",
          "type": "uint256"
        }
      ],
      "name": "set",
      "outputs": [],
      "stateMutability": "nonpayable",
      "type": "function"
    },
    {
      "inputs": [],
      "name": "get",
      "outputs": [
        {
          "internalType": "uint256",
          "name": "",
          "type": "uint256"
        }
      ],
      "stateMutability": "view",
      "type": "function"
    },
    {
      "inputs": [],
      "name": "getConAdd",
      "outputs": [
        {
          "internalType": "address",
          "name": "",
          "type": "address"
        }
      ],
      "stateMutability": "view",
      "type": "function"
    },
    {
      "inputs": [],
      "name": "getAcct",
      "outputs": [
        {
          "internalType": "address",
          "name": "",
          "type": "address"
        }
      ],
      "stateMutability": "view",
      "type": "function"
    },
    {
      "inputs": [
        {
          "internalType": "address payable",
          "name": "rcv_addr",
          "type": "address"
        }
      ],
      "name": "sendEth",
      "outputs": [],
      "stateMutability": "payable",
      "type": "function"
    }
  ],
  "bytecode": "0x608060405234801561001057600080fd5b50610310806100206000396000f3fe60806040526004361061004a5760003560e01c8063142d39761461004f57806360fe47b11461007a5780636d4ce63c146100a357806376a54c60146100ce578063ce3c8ad3146100ea575b600080fd5b34801561005b57600080fd5b50610064610115565b6040516100719190610228565b60405180910390f35b34801561008657600080fd5b506100a1600480360381019061009c91906101e1565b61011d565b005b3480156100af57600080fd5b506100b8610127565b6040516100c59190610243565b60405180910390f35b6100e860048036038101906100e391906101b8565b610130565b005b3480156100f657600080fd5b506100ff610186565b60405161010c9190610228565b60405180910390f35b600030905090565b8060008190555050565b60008054905090565b600081905060003490508173ffffffffffffffffffffffffffffffffffffffff166108fc829081150290604051600060405180830381858888f19350505050158015610180573d6000803e3d6000fd5b50505050565b600033905090565b60008135905061019d816102ac565b92915050565b6000813590506101b2816102c3565b92915050565b6000602082840312156101ca57600080fd5b60006101d88482850161018e565b91505092915050565b6000602082840312156101f357600080fd5b6000610201848285016101a3565b91505092915050565b6102138161025e565b82525050565b610222816102a2565b82525050565b600060208201905061023d600083018461020a565b92915050565b60006020820190506102586000830184610219565b92915050565b600061026982610282565b9050919050565b600061027b82610282565b9050919050565b600073ffffffffffffffffffffffffffffffffffffffff82169050919050565b6000819050919050565b6102b581610270565b81146102c057600080fd5b50565b6102cc816102a2565b81146102d757600080fd5b5056fea264697066735822122047981f1802f55c675764f8019c0d31ed52c2267a4791655b66a10c0a0e92a15764736f6c63430008000033",
  "immutableReferences": {},
  "source": "// SPDX-License-Identifier: MIT\r\npragma solidity 0.8.0;\r\n\r\ncontract BankAccount {\r\n  uint storedData;\r\n  \r\n  function set(uint x) public {\r\n    storedData = x;\r\n  }\r\n\r\n  function get() public view returns (uint) {\r\n    return storedData;\r\n  }\r\n\r\n  function getConAdd() public view returns(address){\r\n    return  address(this);\r\n  }\r\n\r\n  function getAcct() public view returns(address){\r\n    return msg.sender;\r\n  }\r\n  \r\n  function sendEth(address payable rcv_addr) public  payable\r\n  {\r\n    address payable aa=rcv_addr;\r\n    uint256 x=msg.value;\r\n    aa.transfer(x);  // 123\r\n  }\r\n\r\n}\r\n",
  "sourcePath": "C:/Truff_2/FRONTEND/contracts/dummy1.sol",
  "compiler": {
    "name": "solc",
    "version": "0.8.0+commit.c7dfd78e.Emscripten.clang"
  },
  "schemaVersion": "3.4.0",
  "updatedAt": "2021-05-11T22:35:37.768Z",
  "devdoc": {
    "kind": "dev",
    "methods": {},
    "version": 1
  },
  "userdoc": {
    "kind": "user",
    "methods": {},
    "version": 1
  }
}